:020000040800F2
:1000000000000220511C0008710900087309000853
:100010007509000877090008790900080000000048
:100020000000000000000000000000007B09000844
:100030007D090008000000007F0900088109000810
:10004000A11C0008A11C0008A11C0008A11C00089C
:10005000A11C0008A11C0008A11C0008A11C00088C
:10006000A11C0008A11C0008A11C0008A11C00087C
:10007000A11C0008A11C0008A11C0008A11C00086C
:10008000A11C0008A11C0008A11C0008A11C00085C
:10009000A11C0008A11C0008A11C0008A11C00084C
:1000A000A11C0008A11C0008A11C0008A11C00083C
:1000B000A11C0008A11C0008A11C0008A11C00082C
:1000C000A11C0008A11C0008A11C0008A11C00081C
:1000D000A11C0008A11C0008A11C0008A11C00080C
:1000E000A11C0008A11C000800000000A11C0008C1
:1000F000A11C0008A11C0008A11C0008A11C0008EC
:10010000A11C0008A11C0008A11C0008A11C0008DB
:10011000A11C0008A11C0008A11C0008A11C0008CB
:10012000A11C0008A11C0008A11C0008A11C0008BB
:10013000A11C0008A11C0008A11C0008A11C0008AB
:1001400000000000000000000000000000000000AF
:10015000A11C0008A11C0008A11C0008A11C00088B
:10016000A11C0008A11C0008A11C0008A11C00087B
:10017000A11C0008A11C0008A11C0008A11C00086B
:10018000A11C0008A11C0008A11C0008A11C00085B
:10019000A11C0008A11C0008A11C0008A11C00084B
:1001A000A11C0008A11C0008A11C0008A11C00083B
:1001B000A11C0008A11C0008A11C0008A11C00082B
:1001C000A11C0008A11C0008A11C0008A11C00081B
:1001D000A11C0008A11C0008A11C0008A11C00080B
:1001E000A11C0008A11C0008A11C0008A11C0008FB
:1001F000A11C0008A11C0008A11C0008A11C0008EB
:10020000A11C0008A11C0008A11C0008A11C0008DA
:10021000A11C0008A11C0008A11C0008A11C0008CA
:10022000A11C0008A11C0008A11C0008000000007F
:10023000A11C0008A11C000800000000A11C00086F
:10024000A11C0008A11C0008A11C0008A11C00089A
:10025000A11C0008A11C0008A11C0008A11C00088A
:10026000A11C0008A11C0008A11C0008A11C00087A
:10027000A11C0008A11C0008A11C0008000000002F
:10028000A11C0008A11C0008A11C0008000000001F
:1002900000000000A11C000810B5054C237833B9FC
:1002A000044B13B10448AFF300800123237010BD49
:1002B0003C04002000000000081E000808B5034BA5
:1002C0001BB103490348AFF3008008BD00000000E4
:1002D00040040020081E000880B59CB0BFF34F8F7B
:1002E000BFF36F8F684B0021C3F85012BFF34F8FDD
:1002F000BFF36F8F5A6942F400325A61BFF34F8FD8
:10030000BFF36F8FC3F88410BFF34F8FD3F88020F3
:1003100043F6E076C2F3C904C2F34E32A507520198
:1003200002EA060C284621464CEA0007013900F192
:100330004040C3F860724F1CF6D1203A12F1200FF2
:10034000EED1BFF34F8F5A6942F480325A61BFF346
:100350004F8FBFF36F8F00F079FB022000F016FD86
:1003600000230093494BDA6A22F00102DA62DB6A69
:1003700003F001030093464B9A6942F440429A61AC
:100380009A6902F440420092009A9A699404FCD55A
:100390004FF480334FF0010E0520A02102220424E7
:1003A00008251692189217941995CDE909E30023B0
:1003B000CDE9140109A80C9310931B931A93CDE96E
:1003C000122201F005F800B1FEE703234FF03F0CC5
:1003D0004FF480622146CDE901C34023CDE90305F6
:1003E00001A8CDE90533CDE9072301F00DFB00B1EC
:1003F000FEE700F0BBF900B1FEE7BFF34F8FBFF39C
:100400006F8F214B5A6922F400325A61C3F85002AF
:10041000BFF34F8FBFF36F8FC3F88400BFF34F8FCD
:100420005A6922F480325A61BFF34F8FD3F880208B
:1004300043F6E076C2F3C904C2F34E32A507520177
:1004400002EA060C284621464CEA0007013900F171
:100450004040C3F874724F1CF6D1203A12F1200FBD
:10046000EED1BFF34F8FBFF36F8F0A4B00221A609C
:10047000094B0A4A1B6813604FF01042126882F35E
:1004800008889847FEE700BF00ED00E00004005830
:100490000048025810E000E00400009058040020DA
:1004A0007B4B2DE9F04FD3F8D42091B0794D09243E
:1004B00042F480420026784F0BA9C3F8D420284686
:1004C000D3F8D4204FF040084FF00A0BDFF8D0A14A
:1004D00002F480424FF400790092009ADA6F42F4FD
:1004E0008042DA67DA6F22F48042DA67D3F8E020DC
:1004F00042F02002C3F8E020D3F8E02002F020020E
:100500000192019AD3F8E02042F00802C3F8E020FB
:10051000D3F8E02002F008020292029AD3F8E02019
:1005200042F02002C3F8E020D3F8E02002F02002DD
:100530000392039AD3F8E02042F02002C3F8E020AF
:10054000D3F8E02002F020020492049AD3F8E020CD
:1005500042F02002C3F8E020D3F8E02002F02002AD
:100560000592059AD3F8E02042F04002C3F8E0205B
:10057000D3F8E02002F040020692069AD3F8E02079
:1005800042F08002C3F8E020D3F8E02002F08002BD
:100590000792079AD3F8E02042F08002C3F8E020E7
:1005A000D3F8E02002F080020892089AD3F8E02005
:1005B00042F04002C3F8E020D3F8E02002F040020D
:1005C0000992099AD3F8E02042F04002C3F8E020F3
:1005D0004FF48062D3F8E03003F040030A930A9BA3
:1005E0000223CDE90B230323CDE90D630F9400F023
:1005F000DBFA01230BA93846CDF82C800D93CDF8FA
:100600003CB000F0D1FA4FF400630BA923480B93E0
:100610000D960F9400F0C8FA04230BA950460F94CE
:100620000B9300F0C1FA0BA92846CDF82C90CDF819
:100630003CB000F0B9FA08230BA950460F940B9375
:1006400000F0B2FA80230BA928460F940B9300F018
:10065000ABFA0BA93846CDF82C9000F0A5FA0BA9FF
:100660002846CDF82C8000F09FFA4FF480430BA968
:1006700038460B9300F098FA32460F215C2000F0C8
:100680003DFA5C2000F06CFA11B0BDE8F08F00BFBD
:10069000004402580014025800180258000C025876
:1006A000001C025800B54FF4407395B04FF04072F3
:1006B00011480C9305230F920222069300230B92FC
:1006C00006A913930093049303926A46CDE90D3370
:1006D000CDE91133102302934FF48003059340F2C8
:1006E0000113019341F2883300F0D9FD003018BFA7
:1006F000012015B05DF804FB5C04002000B54FF448
:10070000407395B041F2883217480C93062306A92E
:1007100006930023CDE90D330F930B931393CDE98B
:10072000113300F0BCFCE8B940F2022302224FF47E
:10073000800104900C48CDE900331023CDE902324A
:1007400005236A46CDE905134FF0407306A90F93C0
:1007500041F2883300F0A3FD003018BF012015B02E
:100760005DF804FB0120FAE75C0400202DE9F0436A
:100770007D4C9DB07D4B2046236000F074FC074605
:1007800008B10124ECE0FFF78BFE01250323C4E947
:1007900001351023E3604FF0006393FAA3F3B3FA3B
:1007A00083F34FF440762046E761013B2361402309
:1007B000C4E90567236200F0F7FB0028E1D14FF49C
:1007C00080774FF06609099041F2883205906946BA
:1007D0000D900697CDF80090CDE90700CDE90B000C
:1007E000204600F05CFC0028CBD14FF0990841F284
:1007F000883269462046CDF8008000F050FC002881
:10080000BFD141F28832694620460696CDF8009065
:1008100000F045FC0028B4D141F2883269462046F8
:10082000CDF8008000F03BFC0028AAD135231790BA
:10083000139041F288321B900EA914970E93CDE9C4
:100840001500CDE91900204600F029FC002898D1B8
:10085000FFF728FF002894D1B723149617900E9322
:1008600013901B90CDE91500CDE91900FFF746FF65
:10087000002886D141F288320EA9204600F00FFCF4
:1008800000287FF47EAFFFF70DFF00287FF479AFDB
:1008900085234FF440764FF04075ADF800000E937D
:1008A0000223139041F288320EA914961795CDE9D0
:1008B0001500CDE91830CDE91A002B4800F0EFFB08
:1008C00000287FF45EAF41F288326946264800F086
:1008D00085FC00287FF455AFFFF710FF0446002881
:1008E0007FF44FAF812341F288320EA91E480E9348
:1008F000BDF8003023F0F0031B051B0D43F400434B
:1009000043F08003ADF8003000F0C9FB00287FF40D
:1009100038AF41F288326946134800F003FC0028E2
:100920007FF42FAFED236A460EA90F480E934FF4C4
:1009300040631B9415934FF4405314961193052371
:10094000CDE9164513934FF000454FF08043CDE9B4
:100950000044CDE9195300F0F7FC002818BF01242A
:1009600020461DB0BDE8F0835C040020005000521A
:100970007047FEE7FEE7FEE7FEE770477047704707
:1009800000F092B81849194810B5D1F8883043F4EE
:100990007003C1F88830164B1A6842F001021A60E1
:1009A00000221A611C68204018609A61DA611A629C
:1009B0009A62DA621A635A639A63DA631A645A644F
:1009C000186820F4802018601A660A4B1B681B0CFC
:1009D0001B04B3F1005F02D2074B01221A604FF0F3
:1009E00000638B6010BD00BF00ED00E07FEDF6EA14
:1009F000004402580010005C08810051704700005C
:100A000038B50F4B0546187808B9012038BD4FF4AA
:100A10007A730C4AB3FBF0F31068B0FBF3F000F00C
:100A2000ADF804460028F0D10F2DEED80246294635
:100A30004FF0FF3000F062F8034B20461D60E5E701
:100A400008000020000000200C00002010B503204A
:100A500000F042F800F03CFF0F49104A8B69C3F3E5
:100A60000323D35C03F01F03D8400D4B18608B6940
:100A700003F00F03D35C03F01F03D840094B186049
:100A80000F20FFF7BDFF044618B9FFF7B7FF204658
:100A900010BD0124FBE700BF00440258201E0008DF
:100AA0000000002004000020034A044B11681B785A
:100AB0000B441360704700BFA8040020080000200A
:100AC000014B1868704700BFA8040020014B18684C
:100AD000000C70470010005C074A0002D36800F465
:100AE000E06023F4E0631B041B0C43F0BF6343F49A
:100AF00000330343D360704700ED00E0164B70B540
:100B0000DC684FF0FF36C4F30224C4F10705231D4F
:100B1000042D28BF0425062B06FA05F38CBF033CE1
:100B20000024002821EA030303FA04F306FA04F47C
:100B300022EA040443EA04034FEA0313DBB206DBB0
:100B400000F1604000F5614080F8003370BD00F0B6
:100B50000F00024A1354F9E700ED00E014ED00E045
:100B6000002808DB4209012300F01F0003FA00F00F
:100B7000014B43F82200704700E100E00138B0F17A
:100B8000807F0AD2064BF021064A5860002082F886
:100B90002310072298601A6070470120704700BF39
:100BA00010E000E000ED00E04FF0B04C00232DE934
:100BB000F74F724EE246DFF8D0B10A6832FA03F41A
:100BC00002D103B0BDE8F08F4FF0010E0EFA03FE24
:100BD0001EEA020200F0BD804C6824F01004022CD2
:100BE00014D14FEAD30803F007090F2500EB88085A
:100BF0004FEA8909D8F8204005FA09F524EA0505E5
:100C00000C6904FA09F42C43C8F820404FEA430861
:100C10004FF003094C6809FA08F9056804F0030469
:100C20006FEA090904FA08F409EA05052C4304608F
:100C30004D6825F01005013D012D11D88468CD685F
:100C400009EA040405FA08F525438560446824EAA6
:100C50000E0E4C68C4F300149C4044EA0E04446039
:100C6000C46809EA04098C6804FA08F444EA09042F
:100C7000C4604C68E4006CD5414D03F0030E4FF0A6
:100C80000F08D5F8F4404FEA8E0E44F00204C5F880
:100C9000F440D5F8F44023F0030505F1B04504F025
:100CA000020405F580650194019C08FA0EF4D5F85C
:100CB000089029EA0408334CA0424CD004F5806423
:100CC000A0424AD004F58064A04248D0584548D09C
:100CD00004F50064A04246D004F58064A04244D0EC
:100CE00004F58064A04242D004F58064A04240D064
:100CF00004F58064A0423ED004F58064A0420CBF9D
:100D000009240A2404FA0EF444EA0804AC60D5432A
:100D10004F683468FF034CBF14432C4034604F6865
:100D20007468BF034CBF14432C4074604F68DCF8F8
:100D30000040FF024CBF14432C40CAF800404F68EB
:100D4000DAF80440BF0254BF05EA04022243CCF89B
:100D50000420013331E70024D4E70124D2E7022440
:100D6000D0E70324CEE70424CCE70524CAE7062411
:100D7000C8E70724C6E70824C4E700BF800000587E
:100D80000044025800000258000C025838B5104CBC
:100D9000E36813F0040FE36805D103F00703181AA2
:100DA00018BF012038BD23F007031843E060FFF7A8
:100DB00087FE054663689B0401D50020F2E7FFF734
:100DC0007FFE401BB0F57A7FF4D90120EAE700BF2F
:100DD000004802584B6A2DE9F04733B1B2F1406F39
:100DE00003D08B6A0468013B23618B690C6A002B7A
:100DF00067D00568002C35D08B68EB61CC694B6AF5
:100E000005688F69D1F820C0D1F83480D1F810E09E
:100E10000E68D1E90BA9A4B144EA0A04144344EAD8
:100E2000090444EA08042343CC6843EA0E0343EA76
:100E30000C0323433B434C69334343EA84436B61D4
:100E40002AE04AEA0904144344EA0804234343EA33
:100E50000E0343EA0C033B4333434E6943EA8646A1
:100E60006E612CE04E69CC69D1F80090B604D1F8DF
:100E700024804F6BD1E90BECACB11C43CB6814431D
:100E800044EA090444EA080444EA0E0444EA0C046F
:100E90003C431C4334436C61B2F1406F0FD0036894
:100EA0004A689A610BE043EA0903134343EA0803E3
:100EB00043EA0E0343EA0C033B4333436B61BDE853
:100EC000F08744B303688C68DC61CC69D1F8248076
:100ED00005688E69D1F820C04B6BD1F810E0D1E9DC
:100EE0000B796CB13C43144344EA09042343CC68B6
:100EF00043EA080343EA0E0343EA0C0323439AE759
:100F000047EA09042243134343EA080343EA0E0372
:100F100043EA0C03A0E7CD694B6A7DB12B43CD6A50
:100F2000046813432B430D6B2B434D6B2B43CD6850
:100F30002B434D6943EA85436361ADE7002BBED087
:100F4000CC6A0068234313430A6B13434A6B134371
:100F50004A6943EA82434361B1E72DE9F041069DC6
:100F600004460F461646984621688A683A4214BFDE
:100F700001220022B24201D1002011E06B1CF4D00A
:100F8000FFF79EFDA0EB0800A84201D8002DEBD191
:100F90000423012084F84130636C43F0010363644F
:100FA000BDE8F0817047000037B50446FFF788FDC3
:100FB0000546002C4FD094F84030012B4DD0012332
:100FC00084F8403094F8412002F0FF033AB984F8E5
:100FD00040302046FFF7E6FF41F28833A3642068E3
:100FE000A1680268013922F4706242EA01222021DC
:100FF00002600022A36C204600932B46FFF7ADFF52
:1010000020BB2168E569E3680A682B43256A22F062
:101010007F422B43656822F0D00243EA0563134305
:101020000B602168D4E905324D681343226943EA15
:1010300002430B4A2A4013434B602268136843F073
:10104000010313600123606484F84130002384F8B5
:10105000403003B030BD0120FBE70220F9E700BFBC
:10106000FEF8E0FF704710B50446A0B190F840309C
:10107000012B12D00268012380F84030136823F05E
:1010800001031360FFF7EEFF0020606484F8410065
:1010900084F8400010BD0120FCE70220FAE72DE9AA
:1010A000F34704468A469146FFF70AFD94F840301C
:1010B0008046012B34D00123022784F8403094F875
:1010C0004160F6B29E4229D100220346CDF800903D
:1010D00020216264204684F84170FFF73EFF0546F8
:1010E000A8B9024651462046FFF774FEDAF82430CC
:1010F0005BB9CDF800904346324639462046FFF7AB
:101100002CFF054618B92368DF6084F8416000238E
:1011100084F84030284602B0BDE8F0873D46F6E747
:101120000225F7E72DE9F341044688461746FFF705
:10113000C7FC94F840300646012B4DD001232568AA
:1011400084F8403094F84100C0B2984242D1002364
:101150006364B8F1000F38D0122384F841302B6952
:101160000133E3622B69C4F824800133A3626B6905
:1011700023F040636B61E36A9BB900973346012219
:1011800002212046FFF7E9FE10B923680222DA6047
:10119000012384F84130002384F8403002B0BDE8D8
:1011A000F08100973346012204212046FFF7D5FE47
:1011B0000028EDD1636A1B7885F82030636A01331B
:1011C0006362E36A013BE362D5E7636C43F00803C3
:1011D0006364E0E70220DEE70220DFE72DE9F34168
:1011E000044617468846FFF76BFC25680646AA6941
:1011F00094F84030012B50D0012384F8403094F80B
:101200004100C0B2984246D100236364B8F1000F98
:101210003CD0222384F841302B690133A3632B692E
:10122000C4F83080013363636B6923F0406343F09B
:1012300080636B6123689A61A36B9BB90097334607
:10124000012202212046FFF788FE10B923680222FE
:10125000DA60012384F84130002384F8403002B082
:10126000BDE8F08100973346012206212046FFF7B2
:1012700074FE0028EDD195F82020236B1A70236BA3
:1012800001332363A36B013BA363D5E7636C43F096
:1012900008036364E0E70220DEE70220DFE72DE9D0
:1012A000F7430446984689461646FFF709FC94F82A
:1012B00040300746012B45D0012384F8403094F894
:1012C0004150EDB29D423BD142230022CDF8008037
:1012D0002021626484F8413003462046FFF73DFE3A
:1012E00040BB2368204632689A62236872685A625B
:1012F0002368B268DA62216833690A6843F48003BC
:1013000022F4400213434FF000620B604946F36839
:10131000C9F82830FFF75EFDCDF800803B462A462D
:1013200008212046FFF719FE20B923680822DA6059
:1013300084F84150002384F8403003B0BDE8F083C6
:101340000220F7E70220F8E7F7B5044617460E46F5
:10135000FFF7B6FB94F840200346012A36D001225D
:1013600084F8402094F84120012A2DD100228221C6
:101370002046626484F84110A16C00912021FFF79F
:10138000ECFD0546D0B922687968136823F008039C
:101390000B4313607B68082B0AD123683A681A63F1
:1013A00010222368DA602268136843F48013136004
:1013B0004FF0406231462046FFF70CFD002384F8D1
:1013C0004030284603B0F0BD0225F7E70225F8E7D4
:1013D000F8B5044608B9012090E00368DD075ED443
:1013E0002368980700F1AC802368DA0623D5AB4B5D
:1013F0001A69996A02F03802082A07D0182A40F0C0
:10140000008101F00302012A40F0FB801B68DB052C
:1014100002D5E369802BDED1FFF758FB41F20303CD
:101420009E4A9842216A00F2E580536823F0F8430F
:1014300043EA816353602368190700F11B81236825
:101440009A0600F1408123685D0722D5944D2B68F0
:1014500043F480732B60FFF733FB06462B68DA05F5
:1014600040F15681A2688D4B012A40F058811A6FD5
:1014700042F001021A67A368002B00F06781FFF7B2
:101480001FFB864D064641F288372B6F9B0740F1C4
:101490005681606A002840F0698100202EE07F4B71
:1014A0001A69996A02F03802102A05D0182A0AD15E
:1014B00001F00302022A06D11B68990390D56368E4
:1014C000002B8DD187E76268744BB2F5803F16D14F
:1014D0001A6842F480321A6063680BB3FFF7F0FABF
:1014E0006E4D064641F288372B689A033FF578AF78
:1014F000FFF7E6FA801BB842F6D90320F8BD3AB9E7
:101500001A6822F480321A601A6822F48022E2E714
:10151000B2F5A02F1A68F4D142F480221A60D7E7FE
:10152000FFF7CEFA5D4D064641F288372B689B03E4
:101530007FF556AFFFF7C4FA801BB842F6D9DCE757
:10154000564B1A69996A12F0380203D0182A1BD137
:101550008E0719D11B685D0703D5E368002B3FF4A4
:101560003AAFFFF7B3FA41F203034C4A98422169BC
:10157000536895BF23F47C3323F0FE4343EA0133E1
:1015800043EA016353602FE7444DE2682B680AB3D6
:1015900023F0190313432B60FFF792FA06462B68DA
:1015A000580711D5FFF792FA41F2030322699842D6
:1015B0006B6895BF23F47C3323F0FE4343EA023388
:1015C00043EA02636B600FE7FFF77AFA801B022899
:1015D000E5D992E723F001032B60FFF771FA064685
:1015E0002B6859077FF500AFFFF76AFA801B0228C6
:1015F000F6D982E7D36823F07C5343EA0163D360D2
:1016000019E7E369254D23B32B6843F080032B6072
:10161000FFF756FA06462B68DF050DD5FFF756FA99
:1016200041F20303226A98420CD86B6823F0F84316
:1016300043EA82636B60FEE6FFF742FA801B0228F2
:10164000E9D95AE7EB6823F07C5343EA0263EB6085
:10165000F1E62B6823F080032B60FFF731FA064692
:101660002B68D8057FF5E7AEFFF72AFA801B022822
:10167000F6D942E76369094DA3B16B6F43F00103EB
:101680006B67FFF71DFA06466B6F9B073FF5D7AEFA
:10169000FFF716FA801B0228F6D92EE700440258FD
:1016A000004802586B6F23F001036B67FFF708FADD
:1016B00006466B6F9F077FF5C2AEFFF701FA801BEE
:1016C0000228F6D919E7A369804D83B12B6843F44A
:1016D00080532B60FFF7F4F906462B6898043FF51A
:1016E000B2AEFFF7EDF9801B0228F6D905E72B68AB
:1016F00023F480532B60FFF7E3F906462B68990427
:101700007FF5A1AEFFF7DCF9801B0228F6D9F4E6DD
:10171000FFF7D6F9801B64287FF6A0AEEDE63AB954
:101720001A6F22F001021A671A6F22F00402A1E672
:10173000052A1A6FF5D142F004021A6797E6FFF7FF
:10174000BFF9801BB8427FF6A0AED6E6FFF7B8F926
:101750005E4D064641F288372B6F98077FF599AEAC
:10176000FFF7AEF9801BB842F6D9C6E6574D2B6994
:1017700003F03803182B7AD02B68022823F08073EB
:101780002B6067D1FFF79CF906462B6899015BD463
:10179000AB6AA26A23F47C7323F003031343E26A67
:1017A00043EA0213AB62636BA26B013B013A5B023B
:1017B00012049BB202F4FE021343226B013AC2F3FD
:1017C00008021343E26B013A120602F0FE42134391
:1017D0002B63EB6A23F00103EB626B6BA26C23F4C7
:1017E0007F4323F0F80343EAC2036B63EB6A226C86
:1017F00023F00C031343EB62EB6A626C23F00203E9
:10180000324C1343EB62EB6A43F48033EB62EB6AD6
:1018100043F40033EB62EB6A43F48023EB62EB6A40
:1018200043F00103EB622B6843F080732B60FFF7FA
:1018300047F9054623689A013FF52FAEFFF740F9B7
:10184000401B0228F6D958E6FFF73AF9801B022818
:101850009BD952E6FFF734F904462B689B017FF5CC
:101860001CAEFFF72DF9001B0228F6D945E601282A
:10187000AA6A2B6B3FF442AE02F00301A06A8142D8
:101880007FF4A9ADC2F30512E16A8A427FF4A3ADE9
:10189000226BC3F30801013A91427FF49CAD626B65
:1018A000C3F34621013A91427FF495ADA26BC3F395
:1018B0000641013A91427FF48EADE06BC3F30663BB
:1018C0000138181A18BF012018E600BF004402585A
:1018D000464B10B51A6902F03802102A00F08480D5
:1018E000182A0CD00AB1424810BD1A68414812F0BB
:1018F000200FF9D01B68C3F3C103D840F4E7996AFD
:10190000986ADA6AC0F305105C6B0028ECD007EE29
:10191000900A02F00102C4F3CC00B7EE006AF8EEC0
:10192000E76A424307EE902A01F00302012AFAEE29
:10193000E97A02D00FD3022A48D01B6BC3F3080305
:1019400007EE103AB8EEC77A77EE277A77EE867A06
:101950009FED296A37E01A68920627D51968254A4B
:10196000C1F3C1011B6BCA40C3F3080307EE102A81
:10197000F8EEC75A85EEA67A06EE903AF8EEE66AD9
:1019800076EEA77A77EE867A184B67EE877A1B6B2E
:10199000C3F34623013307EE103AF8EEC76A87EE29
:1019A000A67AFCEEC77A17EE900A9DE71B6BC3F38D
:1019B000080307EE103AB8EEC77A77EE277A77EE8B
:1019C000867A9FED0E6A86EE267ADDE71B6BC3F3FF
:1019D000080307EE103AB8EEC77A77EE277A77EE6B
:1019E000867A9FED076AEEE706487DE700440258D5
:1019F00000093D000090D0030024744A0024744C78
:101A000020BCBE4B40787D012DE9F0410D460446D7
:101A100010B90120BDE8F081884A136803F00F0374
:101A20008B42C0F0928023685E0700F19A802368A1
:101A300018070BD5824A6069D16901F070018842AC
:101A400004D9D36923F070030343D3612368D90613
:101A50000BD57B4AA069D16901F4E061884204D9C1
:101A6000D36923F4E0630343D36123689A060BD55B
:101A7000734AE069116A01F07001884204D9136A5F
:101A800023F070030343136223689B070BD56C4A52
:101A9000E068916901F00F01884204D9936923F04D
:101AA0000F03034393612368DF0768D423689E070D
:101AB00000F19B80614A136803F00F03AB4200F210
:101AC000A2802368580700F1AA80236819070BD564
:101AD0005B4A6069D16901F07001884204D2D36920
:101AE00023F070030343D3612368DA060BD5544A0D
:101AF000A069D16901F4E061884204D2D36923F47A
:101B0000E0630343D36123689B060BD54C4AE0692D
:101B1000116A01F07001884204D2136A23F0700345
:101B200003431362FFF7D4FE454B464A9B69C3F358
:101B30000323D35C03F01F03D840434B1860434B8F
:101B4000BDE8F0411868FEF75BBF136823F00F0390
:101B50000B431360136803F00F038B427FF459AFFC
:101B600061E7374A2069916901F0700188427FF688
:101B70005EAF936923F070030343936157E7304BE3
:101B8000A1689A6922F470620A439A6161681A68CE
:101B900002291DD112F4003F3FF43BAF1A6941F214
:101BA0008838274E22F007020A431A61FEF788FFA1
:101BB00007463369626803F03803B3EBC20F3FF4A2
:101BC00075AFFEF77DFFC01B4045F2D9032021E72A
:101BD000032902D112F0007FDEE7012902D112F4BD
:101BE000807FD9E712F0040FD6E7154AE0689169C3
:101BF00001F00F018842BFF45DAF936923F00F033A
:101C00000343936156E7136823F00F032B431360DC
:101C1000136803F00F03AB427FF4FBAE51E7084AB1
:101C20002069916901F070018842BFF44EAF936959
:101C300023F070030343936147E700BF0020005285
:101C400000440258201E0008000000200C00002064
:101C5000DFF834D0002103E00C4B5B5843500431D3
:101C60000B480C4B42189A42F6D30B4A02E0002371
:101C700042F8043B094B9A42F9D3FEF783FE00F089
:101C800011F8FEF729FB704700000220401E0008F3
:101C9000000000203C0400203C040020D004002070
:101CA000FEE7000070B50D4E0D4D761BB61006D048
:101CB0000024013455F8043B9847A642F9D1094E57
:101CC000094D761B00F0A0F8B61006D000240134B0
:101CD00055F8043B9847A642F9D170BD341E000860
:101CE000341E00083C1E0008341E0008024B13B1CD
:101CF000024800F005B87047000000000D1D000804
:101D0000002301461A46184600F01EB838B50A4CA2
:101D10000A4D641BA4100AD004F18043013B05EB7B
:101D20008305013C55F804399847002CF9D1BDE8EA
:101D3000384000F06FB800BF401E00083C1E00088D
:101D4000704700BF704700BF2DE9F8432B4D064692
:101D5000286898460F469146FFF7F2FF284B1C680B
:101D6000D4F84831002B3DD05A681F2A0DDC02F10F
:101D7000010C16BB0232C3F804C0286843F8227075
:101D8000FFF7E0FF0020BDE8F8831E4B7BB34FF464
:101D9000C870AFF30080034648B3D4F8482100214F
:101DA000C0E900214FF0010CC4F848010A46C0F810
:101DB0008811C0F88C11002EDCD003EB82010124C5
:101DC000C1F88890D3F8880194402043022EC3F8CC
:101DD0008801C1F80881CDD1D3F88C110C43C3F828
:101DE0008C41C7E704F5A673C4F84831BCE72868FE
:101DF000FFF7A8FF4FF0FF30C5E700BF3804002011
:101E0000301E000800000000F8B500BFF8BC08BC98
:101E10009E467047F8B500BFF8BC08BC9E467047A8
:101E20000000000001020304010203040607080980
:101E300010000020ED1C0008BD02000899020008F7
:101E40000090D0030090D0030100000010000000BB
:101E500000000000FC02002064030020CC030020EE
:101E60000000000000000000000000000000000072
:101E70000000000000000000000000000000000062
:101E80000000000000000000000000000000000052
:101E90000000000000000000000000000000000042
:101EA0000000000000000000000000000000000032
:101EB0000000000000000000000000000000000022
:101EC0000000000000000000000000000000000012
:101ED0000000000000000000000000000000000002
:101EE00000000000000000000000000000000000F2
:101EF00000000000000000000100000000000000E1
:101F00000E33CDAB34126DE6ECDE05000B000000A5
:101F100000000000000000000000000000000000C1
:101F200000000000000000000000000000000000B1
:101F300000000000000000000000000000000000A1
:101F40000000000000000000000000000000000091
:0C2270000000000000000000AC04002092
:0200000490006A
:1000000000000824A5C700903748009039480090A8
:100010003B4800903D4800903F48009000000000A1
:1000200000000000000000000000000011B9009076
:100030004148009000000000A1B90090B1B20090CA
:10004000F5C70090F5C70090F5C70090F5C7009080
:10005000F5C70090F5C70090F5C70090F5C7009070
:10006000F5C70090F5C70090F5C70090F5C7009060
:10007000F5C70090F5C70090F5C70090F5C7009050
:10008000F5C70090F5C70090F5C70090F5C7009040
:10009000F5C70090F5C70090F5C70090F5C7009030
:1000A000F5C70090F5C70090F5C70090F5C7009020
:1000B000F5C70090F5C70090F5C70090F5C7009010
:1000C000F5C70090F5C70090F5C70090F5C7009000
:1000D000F5C70090F5C70090F5C70090F5C70090F0
:1000E000F5C70090F5C7009000000000F5C700902C
:1000F000F5C70090F5C70090F5C70090F5C70090D0
:10010000F5C70090F5C70090F5C70090F5C70090BF
:10011000F5C70090F5C7009045480090F5C70090DE
:10012000F5C70090F5C70090F5C70090F5C700909F
:10013000F5C70090F5C70090F5C70090F5C700908F
:1001400000000000000000000000000000000000AF
:10015000F5C70090F5C70090F5C70090F5C700906F
:10016000F5C70090F5C70090F5C70090F5C700905F
:10017000F5C70090F5C70090F5C70090F5C700904F
:10018000F5C70090F5C70090F5C70090F5C700903F
:10019000F5C70090F5C70090F5C70090F5C700902F
:1001A00051480090F5C700905D480090F5C7009059
:1001B000F5C70090F5C70090F5C70090F5C700900F
:1001C000F5C70090F5C70090F5C70090F5C70090FF
:1001D000F5C70090F5C70090F5C70090F5C70090EF
:1001E000F5C70090F5C70090F5C70090F5C70090DF
:1001F000F5C70090F5C70090F5C70090F5C70090CF
:10020000F5C70090F5C70090F5C70090F5C70090BE
:10021000F5C70090F5C70090F5C70090F5C70090AE
:10022000F5C70090694800907548009000000000F4
:10023000F5C70090F5C7009000000000F5C70090DA
:10024000F5C70090F5C70090F5C70090F5C700907E
:10025000F5C70090F5C70090F5C70090F5C700906E
:10026000F5C70090F5C70090F5C70090F5C700905E
:10027000F5C70090F5C70090F5C70090000000009A
:10028000F5C70090F5C70090F5C70090000000008A
:0802900000000000F5C700901A
:1002A00010B5054C237833B9044B13B10448AFF3B0
:1002B00000800123237010BD800300240000000093
:1002C000DC7A029008B5034B1BB103490348AFF336
:1002D000008008BD0000000084030024DC7A029046
:1002E0007BB972B90029BEBF00204FF0004106E083
:1002F00008BF00281CBF6FF000414FF0FF3000F036
:10030000A5B9ADF1080C6DE904CE002909DB002B7D
:100310001ADB00F035F8DDF804E0DDE9022304B073
:100320007047404261EB4101002B1BDB00F028F8D5
:10033000DDF804E0DDE9022304B0404261EB410155
:10034000524263EB43037047524263EB430300F0B6
:1003500017F8DDF804E0DDE9022304B0404261EB68
:1003600041017047524263EB430300F009F8DDF8A6
:1003700004E0DDE9022304B0524263EB430370471B
:100380002DE9F047089E04468846002B4BD18A424F
:10039000154667D9B2FA82F24AB1C2F1200701FAD2
:1003A00002F320FA07F7954047EA030894404FEA22
:1003B000154E230CB8FBFEF71FFA85FC0EFB1788C1
:1003C00043EA084307FB0CF1994209D9EB1807F1FE
:1003D000FF3080F01B81994240F21881023F2B448C
:1003E0005B1AA4B2B3FBFEF00EFB103344EA0344E5
:1003F00000FB0CFCA44509D92C1900F1FF3380F057
:100400000781A44540F2048102382C4440EA0740A9
:10041000A4EB0C0400271EB1D4400023C6E900431E
:100420003946BDE8F0878B4209D9002E00F0EB80F9
:100430000027C6E9000138463946BDE8F087B3FA1F
:1004400083F7002F47D18B4202D3824200F2FA8019
:10045000841A61EB030301209846002EE0D0C6E920
:100460000048DDE702B9FFDEB2FA82F2002A40F06E
:100470008F80491B4FEA154E1FFA85F80127B1FB03
:10048000FEFC230C0EFB1C1143EA014308FB0CF19C
:10049000994207D9EB180CF1FF3002D2994200F2D1
:1004A000CD808446591AA3B2B1FBFEF00EFB1014A6
:1004B00043EA044408FB00F8A04507D92C1900F1D1
:1004C000FF3302D2A04500F2B6801846A4EB080420
:1004D00040EA0C409FE7C7F1200CBB4022FA0CFE1B
:1004E0004EEA030E01FA07F420FA0CF521FA0CF398
:1004F0004FEA1E482543B3FBF8F92C0C08FB1933CF
:100500001FFA8EFA44EA034309FB0AF49C4202FAFA
:1005100007F200FA07F10BD91EEB030309F1FF30D4
:1005200080F087809C4240F28480A9F102097344E4
:100530001B1BADB2B3FBF8F008FB103345EA0344D4
:1005400000FB0AFAA24508D91EEB040400F1FF33B0
:100550006BD2A24569D90238744440EA0940A0FB35
:100560000289A4EB0A044C45C2464B4654D351D0F1
:10057000002E69D0B1EB0A0564EB030404FA0CFC0D
:10058000FD40FC404CEA0505C6E90054002747E75A
:10059000C2F1200320FA03F7954001FA02F021FA94
:1005A00003F34FEA154E3843010CB3FBFEF71FFA75
:1005B00085F80EFB173341EA034107FB08F38B4232
:1005C00004FA02F407D9691807F1FF3C2FD28B42D5
:1005D0002DD9023F2944CB1A81B2B3FBFEF00EFBAA
:1005E000103341EA034100FB08F38B4207D9691835
:1005F00000F1FF3C17D28B4215D902382944C91AA1
:1006000040EA07473BE73746304609E70746E7E653
:100610001846FBE64145ABD2B8EB020A69EB0E0285
:1006200001381346A4E76046E9E7184695E76746B0
:10063000D1E781467CE702382C4447E7ACF1020C55
:100640002B442FE7384608E73746E9E6704700BFF6
:1006500001F0FF01102A2BDB10F0070F08D010F873
:10066000013B013A8B422DD010F0070F42B3F6D177
:10067000F0B441EA012141EA014122F007047FF090
:1006800000070023F0E80256083C85EA010586EAE7
:10069000010685FA47F5A3FA87F586FA47F6A5FA23
:1006A00087F68EB9EED1F0BC01F0FF0102F007022F
:1006B00032B110F8013B013A83EA010313B1F8D1DA
:1006C0000020704701387047002D06BF35460338BB
:1006D000073815F0010F07D1013015F4807F02BFF4
:1006E000013015F4C03F0130F0BC0138704700BF45
:1006F000704770477047000013B50123044602A9F4
:100700000D484FF0FF3201F8083D0023006809F062
:10071000A9FAE36B9A6800239380E26B9268D38016
:1007200041F6C462A35041F6CA62A35241F6CC62BC
:10073000A35402B010BD00BFB0910024034B10B50C
:100740000446036000F004FB204610BD447B029089
:1007500010B50446FFF7F2FF41F6D861204625F0B8
:100760003FF9204610BD000010B5044600F034FCEF
:100770000C4B41F6C462204623600023A35041F68F
:10078000C862A35041F6CC62A35441F6D262A35290
:1007900041F6D4630122E25241F6D6630222E252CC
:1007A00010BD00BF447B029038B5044600F028FA23
:1007B000124DE36B04F516709A68B2F9061041F613
:1007C000C862A1520A219B68B3F9042041F6CE63A6
:1007D000E25241F6C4632A46E35E15F0F5FF41F6A6
:1007E000C6632A4604F51B70E35E0A2115F0ECFF90
:1007F00004F1F400BDE8384013F0B1BC347B029042
:10080000154B37B5044600226946186809F092FB7B
:1008100001281FD1BDF9003041F6C46241F6C6651A
:100820009DF80410A35204F51670BDF8022062531F
:1008300041F6CC62A1540A21084A15F0C5FF635F56
:10084000064A0A2104F51B7015F0BEFF04F1F400FE
:1008500013F085FC03B030BDB4910024347B0290CA
:10086000704704387047704710B50446102125F0D2
:10087000B7F8204610BDA0F10400F5E70022C160E2
:100880008260044A10B502F108042032046042601C
:1008900010BD00BF747B02907047043870477047EA
:1008A00010B50446102125F09BF8204610BDA0F19C
:1008B0000400F5E70022C1608260044A10B502F12D
:1008C000080420320460426010BD00BF9C7B02908F
:1008D0007047704707B5C36B6946B0F960259B68E0
:1008E0009A80C36BB0F962259B68DA800023B0F868
:1008F00060258DF80030ADF80220B0F8622505487B
:10090000ADF804204FF0FF32006809F0ABF903B0F6
:100910005DF804FBB0910024034B10B5044603605E
:1009200000F041FD204610BDCC7B029010B504467E
:10093000FFF7F2FF40F26451204625F051F82046BF
:1009400010BD000010B5044600F04CFE034B2046DD
:1009500023600023C4F8603510BD00BFCC7B02903B
:1009600038B5044600F020FD114D0A21E26B04F574
:10097000A5609368B3F90430A4F860359268B2F9C1
:100980000620A4F862252A4615F01EFFB4F9623548
:100990002A460A2104F23C5015F016FF04F54E7069
:1009A00013F0DDFB04F56170BDE8384013F0D7BBF0
:1009B000347B029010B5B0F960353C21044600F557
:1009C000A5605A1C92FBF1F301FB1323054A0A218F
:1009D000038715F0F9FE04F54E70BDE8104013F0E2
:1009E000BEBB00BF347B029010B5B0F960353C212E
:1009F000044600F5A56003F13B0292FBF1F301FB15
:100A00001323054A0A21038715F0DEFE04F54E7014
:100A1000BDE8104013F0A3BB347B029010B5B0F8D2
:100A200062350446074A0A21013300F23C501BB2EA
:100A3000C38415F0C9FE04F56170BDE8104013F0E1
:100A40008EBB00BF347B029010B5B0F8623504460F
:100A5000074A0A21013B00F23C501BB2C38415F047
:100A6000B3FE04F56170BDE8104013F078BB00BF21
:100A7000347B02900022C0E9002270477047704723
:100A800000F598730868496803C37047704701F020
:100A90003DB910B504464FF4AE7124F0A1FF2046D5
:100AA00010BD10B50446D0F85801FFF7E7FF204607
:100AB000BDE8104012F05CBB10B50446D0F8400110
:100AC00058B10368DB68984738B1D4F8400103682F
:100AD0009B6898470023C4F8403110BD10B5044608
:100AE00001F0D8F8014B2046236010BD147C029021
:100AF00090F8252012B103685B6918477047002001
:100B0000704781807047C180704701817047418183
:100B1000704770477047704770477047C388D21A54
:100B20008388C91A036812B209B210B45DF8044B85
:100B30005B6D18474FF6FF7383814FF0FF330362FD
:100B40001368C3611060704790F825201AB190F8BF
:100B5000242002B118607047806A70477047704760
:100B600000207047B1F9043083800120704770473E
:100B7000704730B585B00368044601816D46014673
:100B8000D3F884303C342846984795E8070084E839
:100B9000070005B030BD30B585B00368044641811B
:100BA0006D460146D3F884303C342846984795E892
:100BB000070084E8070005B030BD002202804280B3
:100BC0008280C280704780F83610704770B5036825
:100BD000044615461B6B98472368294620465B6EE2
:100BE000BDE8704018470020704708B5FFF780FF48
:100BF00008BD806C7047806C7047C06C7047704750
:100C00007047704790F82C302BB1C26EC26523B18B
:100C1000436F03667047826EF8E7036FF9E708B524
:100C200090F82C3033B1D0F8C430C0F8A830FFF7BA
:100C3000E9FF08BDD0F8C030F7E77047704770474C
:100C4000704730B4C568034644686A10ED079B6876
:100C500004EB020048BFA25830BC48BFD358184725
:100C600043682BB183682BB9C06800F0010070475E
:100C7000184670470120704790F82D3080F8AE304C
:100C800080F85A30704790F82D3080F85A3070470D
:100C900010B50446082124F0A3FE204610BD10B56F
:100CA0000446782124F09CFE204610BD10B5044671
:100CB000C82124F095FE204610BD10B504465021F1
:100CC00024F08EFE204610BD10B504464C2124F0C1
:100CD00087FE204610BD10B50446102124F080FE8A
:100CE000204610BD70B5036804468DB25E6B114B93
:100CF0001B682BB9104B6C21104A114825F0F8FEE7
:100D00001049828D0988914203D80F4B6D210B4AFF
:100D1000F3E713F812200D4B1B6853F82200036809
:100D20001B6B9847291A3346204609B2BDE870402C
:100D3000184700BF58310224BD7F0290F180029015
:100D4000FF7F02905C3102244080029060310224D7
:100D5000034B10B50446036010F090FC204610BD14
:100D600088800290064B10B50446036010F086FCA4
:100D700041F6C461204624F033FE204610BD00BF7A
:100D80008880029010B50446006B50B10368DB68A0
:100D9000984730B1206B21460368BDE810409B683E
:100DA000184710BD0B7970B504460E4690F82C50CC
:100DB00053B955B13379012B17D123682046D3F8A5
:100DC0008830BDE8704018477DB1B3FA83F3204600
:100DD0005B0984F82C302368D3F88C30984723685B
:100DE00020465B699847002DE4D170BD00F5A272E2
:100DF0008A4208B508D10368DB6A984712F036F9D1
:100E0000BDE8084000F092BF08BD00224FF0FF315E
:100E10008260C0E9002170470A4A02600022828095
:100E2000C280028142818281C28102824282C26189
:100E30000284428480F82420C0E90522012280F83F
:100E40002520704734AF029070B5036804461546FC
:100E50001B6B98472368294620465B6BBDE87040B2
:100E6000184770B504461E46BDF91050FFF7ECFF59
:100E70002368314620469A6B9047236829462046CE
:100E8000DB6BBDE87040184710B5044626220021F0
:100E900025F0A9FE2046FFF7BFFF044B2046236044
:100EA000FF2384F826300023A36210BD94AD029086
:100EB000002370B583800646104B114D03602A68ED
:100EC00092F8581009B1D06C00B990680368DB6AD9
:100ED00098472B68B0FA80F4D86C640928B103688D
:100EE000DB6A9847002808BF01242CB9054B2C2148
:100EF000054A064825F0FCFD304670BD687C02902E
:100F000000310224037F0290B8800290617F02903A
:100F100010B504462622002125F065FE2046FFF785
:100F20007BFF0C4B4FF6FF724FF47F01236020468E
:100F3000094BA285A3620023A4F8402084F838302E
:100F400084F83930A387E387A4F842206364C4E9B6
:100F50000C3110BD04AD0290887C029070B504463F
:100F6000FFF75AFFFF230025264684F82D30012382
:100F7000A56284F82430154B84F82C50256346F87C
:100F8000343B3046FFF780FF114B2A462946636306
:100F900030462566A4F86450C4E91A55C4E91C55C6
:100FA000FFF752FF3146204626460BF05BFC094B0B
:100FB00046F8783B3046FFF7ABFF20463146C4E9A0
:100FC00030550BF04FFC204670BD00BFB87D02903D
:100FD000FCAD0290547E02902DE9F04F04468DB096
:100FE000002513F00BFFA146724B04F16C074FF67E
:100FF000FF78E5630CAE49F8403B4846FFF744FFF5
:10100000262229463846ADF8288025F0ECFD3846E2
:1010100004F1980AFFF700FF674B384604F1E00B34
:10102000E36636F8083D84F8948004F1F40831460C
:10103000A4F892300FF01CFC50460EF05BF95846B5
:10104000FFF736FF5D4BC4F8EC504046C4F8E03083
:101050002433C4F8E830FFF75BFF594BC4F83C5128
:10106000C4F8F43004F5A273C4F840511846039351
:10107000FFF774FF04F5037318460293FFF748FF68
:10108000504BC4F854524FF4E151C4F80C3241F6BD
:10109000B46304F52570E21804924B4AE250049BB5
:1010A0004A4A5C6041F6BC63E25004F5F6531D60A9
:1010B00010F0DAFA4FF488732A464846009329461E
:1010C0004FF4F073FFF7CDFE4FF07F4349464FF0EA
:1010D0000409A366231D184605930BF0C3FB2A469B
:1010E00038462946FFF7B0FE38463146ADF828901D
:1010F0000FF0BEFB3946A02704EB09000BF0B2FB52
:1011000038223B46394650460097FFF7AAFE4FF477
:1011100020635046C4F8D8700A21C4F8D05004F5B2
:101120001677C4E931334FF41663C4F8CC304FF46A
:10113000C353C4F8D4300EF0F5F84FF0FF335146E6
:10114000C4F8C0B0C4F8EC3004EB0900A4F8F030E7
:101150000DF1180A0BF086FB32236F22BE2100939B
:1011600040466423DFF87CB0FFF77BFE4FF0FF338F
:10117000A4F828514146C4F824315046D4F8F4303C
:10118000D3F88430984704F598739AE8070083E809
:101190000700DBF800302BB90D4B60210D4A0E48DB
:1011A00025F0A6FC0D4B1B88042B1DD80C4B612190
:1011B000084AF4E78880029064AE029054AA029034
:1011C000287D0290987C0290F07E0290ED0D0090B8
:1011D000BD7F02902C810290FF7F02905C3102243F
:1011E0004080029058310224664B4946186801F04D
:1011F00045FA654A03460A21384615F0E5FADBF858
:101200000030C4F83C7104F51B77002BC4D05F4A52
:101210001388032BCAD95B4B03214FF005091868CB
:1012200001F02CFA584A03460A21384615F0CCFA48
:10123000C4F84071564F40463146ADF82C900A979D
:101240000FF0BAF941464FF03008201D0BF00AFBB1
:101250002A46F023294604F5BC70CDF80080FFF73C
:1012600000FE4FF0FF314B4BC4F8AC114FF07F4103
:10127000C4F8B031D4F84431C4F8B411C4F8B8118A
:10128000A4F8A8910398D3F88C3098470A9704F5EE
:10129000DE77022331463846ADF82C300FF08CF95A
:1012A000B4F94E313846B4F94C110593FFF761FC9F
:1012B000059B38461946FFF76EFC2A4629463846F4
:1012C000F023CDF80080FFF7CCFD334B039804F5F5
:1012D0002077C4F80432C4F80832FFF7A0FC049960
:1012E000F023D822C4F8741178210398CDF8008037
:1012F000FFF7B7FD0399201D0BF0B4FA4A46B92158
:101300000298FFF7A1FD4FF0FF31D4F80C325046A0
:10131000C4F83C12A4F840520299D3F8843098479C
:1013200004F512739AE8070083E80700DBF8003041
:10133000002B3FF431AF154A1388002B3FF436AF32
:10134000104B2946186801F099F90F4A03460A2103
:10135000384615F039FAC4F8547202980FF00CF9B7
:101360000B4F012331460298ADF82C300A970FF04D
:1013700023F9201D02990BF075FA20460DB0BDE847
:10138000F08F00BF64310224007F02905C310224A0
:10139000887C02909E9D9BFF0A0A0AFF7047704757
:1013A000704770477047704770477047704730B458
:1013B000C568034644686A10ED079B6804EB0200A9
:1013C00048BFA25830BC48BFD358184743682BB118
:1013D00083682BB9C06800F0010070471846704759
:1013E0000120704790F82D3080F8A43080F85A30F2
:1013F000704710B504467C3094F82C303BB104F1B2
:101400007A010FF035FA2046FFF7FCFB10BD04F11E
:101410007801F6E710B50446A82124F0E1FA204649
:1014200010BD10B50446102124F0DAFA204610BD94
:1014300010B504464FF4AC6124F0D2FA204610BD3A
:1014400038B500F1980304460D46994202D103686D
:10145000DB6A984704F5A0739D4203D123682046B8
:101460001B6B984704F5F4739D4203D12368204613
:101470005B6B984704F524739D4203D12368204693
:101480009B6B984704F58C639D4209D123682046E5
:10149000DB6B984711F0EAFDBDE8384000F056BC20
:1014A00038BD2DE9F0470B880446B0F90850914645
:1014B000A0F8783002271388A0F87A30104615F08B
:1014C0003DFAB4F90A608046484615F06BFA95FB80
:1014D000F7F596FBF7F690FBF7F098FBF7F1ADB256
:1014E000B6B2691A321A04F17C0009B212B2FFF7DF
:1014F000ABFC23682046D3F88C30BDE8F047184792
:1015000038B504460D462622002125F06CFB204606
:10151000FFF782FC064B2046294623602B88E38494
:10152000FF2384F828300FF0A3F9204638BD00BF10
:1015300064AE029010B40367019B5DF8044B4367EF
:101540000368C0E91A12D3F88C30184770B5044606
:10155000FFF762FCFF230025264684F82D30012387
:10156000A56284F824300E4B84F82C50256346F88D
:10157000343B3046FFF788FC0A4B2A462946636312
:1015800030462566A4F86450C4E91A55C4E91C55D0
:10159000FFF75AFC204631460BF064F9204670BD37
:1015A000B87D0290FCAD029037B50446FFF7CEFF40
:1015B0000B4B02A904F17C0523604FF6FF7328460C
:1015C00021F8043DA4F87830A4F87A30FFF798FFAA
:1015D000204629460BF046F9204603B030BD00BF37
:1015E0006C8102902DE9F04F044695B0002513F070
:1015F00005FC2646C14BE5630DF1500A46F8403B19
:101600003046FFF741FC04F16C0304F1980904F53E
:10161000A0770B934FF6FF730B9804F1040B2AF895
:10162000083D5146FFF76CFF4846FFF7BDFF3846BF
:10163000FFF7BAFF04F5F473DFF8EC821846059360
:10164000FFF7B2FF04F5247318460693FFF7ACFFCB
:1016500004F54E7318460793FFF75AFC04F56173BF
:10166000C4F838831846C4F880530893FFF750FC39
:1016700004F57473C4F88483C4F8CC534FF07F48E6
:1016800018460993FFF744FC04F5836318460A9350
:10169000FFF73EFC04F58C6318460393FFF756FFF3
:1016A000974BC4F8603404F59B6318460493FFF726
:1016B0002FFCC4F82055C4F82455DDE903010BF0D4
:1016C000D1F8904B2A463046C4F8503529468E4B07
:1016D000C4F85445C4F858354FF48873C4F85C55C1
:1016E00000934FF4F073FFF7BCFB31465846C4F843
:1016F00068800BF0B7F82A4629460B98FFF7A4FB41
:101700000423322651460B98ADF848300FF0B0F85C
:101710000B9958460BF0A6F833462A46294604F1A1
:10172000CC000096FFF79DFB4FF005034846774A33
:10173000A4F8FC304FF0FF314346CDF80080FFF7AE
:10174000F9FE4FF002024FF0030111A8ADF844205A
:101750005246ADF8481001464846FFF7A2FE0A225D
:1017600004F5AA6033461146C4F818510B90C4F82A
:10177000C80048460096FFF774FB494658464FF0AC
:1017800001090BF06FF833462A46294604F5BA7072
:101790000096FFF766FB4FF0050338465B4AA4F856
:1017A000A4314FF0FF314346CDF80080FFF7C2FE71
:1017B00011A85246ADF8489001463846ADF844505D
:1017C000FFF76FFE0B9B0A2238467821C4F8703170
:1017D0003346C4F8C0510096FFF743FB39465846DC
:1017E0004FF005070BF03EF833462A46294604F52C
:1017F00007700096FFF735FB4346A4F84C724FF094
:10180000FF31424A0598CDF80080FFF793FE4FF074
:1018100002024FF003010598ADF844205246ADF89E
:10182000481011A9FFF73DFE0B9B0A224FF49B7154
:10183000C4F8183233460598C4F868520096FFF78A
:1018400010FB059958460BF00DF833462A462946F9
:1018500004F531700096FFF704FB4346A4F8F472D8
:101860004FF0FF31294A0CAF0698CDF80080FFF702
:1018700061FE524611A90698ADF8489004F5A56995
:10188000ADF84450FFF70DFE0B9B0A224FF4D271C6
:101890000698C4F8C0323346C4F810530096FFF7D8
:1018A000E0FA069958460AF0DDFF0A223346412144
:1018B00007980096FFF7D5FAD4F83833C4F8688350
:1018C0003846A4F86C530799D3F88430984704F548
:1018D0005D7397E8070083E807000D4B1B682BB981
:1018E0000C4B60210C4A0D4825F002F90C4B1B886B
:1018F0000B2B1BD80B4B6121074AF4E72482029083
:10190000547E02900C820290411400909E9D9BFF99
:1019100058310224BD7F029064820290FF7F0290C2
:101920005C31022440800290987C0290724B0B2123
:10193000186800F0A3FE714A03460A21484614F0D5
:1019400043FF0C23C4F880935146DFF8C4910798F5
:10195000ADF84C30CDF848900EF02EFE0799584661
:101960000AF080FF0A22334640F26D110898009673
:10197000FFF777FAD4F88433C4F8B4833846A4F870
:10198000B8530899D3F88430984704F5707397E8F2
:10199000070083E8070004F23C520592584A136896
:1019A000002B9DD0574A1388092BA3D9524B0921EC
:1019B000186800F063FE514A03460A21059814F0A6
:1019C00003FF059B51460898C4F8CC330A23CDF891
:1019D0004890ADF84C300EF0EFFD089958460AF0EB
:1019E00041FF3C2209980F21FFF72EFA099938464A
:1019F000C4F80084A4F804540EF036FB04F20C433F
:101A000097E8070083E80700082351460998ADF8D6
:101A10004C30CDF848900EF0CFFD099958460AF0A9
:101A200021FF3C220A9840F22F11FFF70DFA0A9984
:101A30003846C4F84884A4F84C540EF015FB04F260
:101A4000544397E8070083E80700072351460A98A4
:101A5000ADF84C30CDF848900EF0AEFD0A995846DE
:101A60000AF000FF2A46294604F294400096B42367
:101A7000FFF7F7F94FF00503234A4FF0FF31A4F8C1
:101A8000C43443460398CDF80080FFF753FD062386
:101A900051460498ADF84C30CDF848900EF08CFDCE
:101AA000B4F96A74B4F968140498FFF762F8394617
:101AB0000498FFF770F82A46294604980096B42344
:101AC000FFF7CFF9114B0398C4F82035C4F824353B
:101AD000FFF7A5F80B9B88220398C4F89034962151
:101AE000B4230096FFF7BDF9584603990AF0BAFEF1
:101AF000204615B0BDE8F08F64310224007F0290CB
:101B0000583102245C3102249E9D9BFF0A0A0AFF81
:101B1000887C0290704770477047416070477047FB
:101B200001230372704770477047704710B4C46850
:101B3000034641686210E4079B6801EB020048BF5E
:101B40008A585DF8044B48BFD358184743682BB1F7
:101B500083682BB9C06800F00100704718467047D1
:101B60000120704710B504460C2123F039FF2046B0
:101B700010BD10B504464FF4AE7123F031FF20467E
:101B800010BD10B50446102123F02AFF204610BDD9
:101B900010B50446402123F023FF204610BD10B5A8
:101BA00011F064FA0368BDE81040DB6B184770B5AC
:101BB000044690F83900013094F83830C0B29842A9
:101BC00084F8390005D901232372002384F83930C1
:101BD00070BDB4F93A20002113F0C2FA83B213F0B9
:101BE000010206D04FF6FF710028D8BF0A469818A8
:101BF00000B2238AC01AA08760680368DB6998472F
:101C000005464DB1A9882846A38F19442B6809B20F
:101C10001B6B9847AD69F4E760680368BDE87040E6
:101C20005B691847054B1B783BB143682BB11A68B9
:101C300000F10C011846526E10477047FF30022425
:101C400070B5037A0546BBB940680368DB699847FD
:101C500004464CB1A18820466B8FC91A236809B28B
:101C60001B6B9847A469F4E7686805F10C010368E9
:101C7000BDE870401B6E184770BD0000044B1B6828
:101C800093F858200AB1D86C00B99868704700BF23
:101C900000310224F8B5044617460E4611F0ACFA9E
:101CA000164B0025C4F854711C602946144BC4F827
:101CB0003C512360134BC4F84051C4F84431124BDB
:101CC000C4F848511868C4F84C51C4F85051C4F8CD
:101CD000586103689B689847284600F095FCFFF719
:101CE000CDFF1BF072FDFFF7C9FF1BF0E9FDFFF709
:101CF000C5FF1BF0F1FD2046F8BD00BF54310224A2
:101D0000BC820290A482029000310224064BC0F8EB
:101D10004801C0F84C310023C0F8503100F5A273DF
:101D2000C0F84031704700BFB11E0090064BC0F8AC
:101D30004801C0F84C310023C0F8503100F5A273BF
:101D4000C0F84031704700BF89200090064BC0F8B2
:101D50004801C0F84C310023C0F8503100F5A2739F
:101D6000C0F84031704700BFED2100902DE9F047E9
:101D7000074690689946884603681546DDF820A016
:101D80001B6A984740F26353984205D8424BA321FF
:101D9000424A434824F0ACFE686803681B6A9847CF
:101DA0000F2803D83F4BA4213C4AF2E7E8680368B8
:101DB0001B6A98470B2803D83B4BA521374AE8E715
:101DC00011F054F9043011F076F9D9F8000010B18F
:101DD0000368DB689847D9F8000010B103681B68F6
:101DE0009847386810B103685B699847D8F80000D5
:101DF00010B103685B689847386810B103681B68C6
:101E00009847D8F8000010B103689B689847E868C5
:101E1000002103685B6A9847044620B100234360B1
:101E20000372224B0360A868002103685B6A98472D
:101E3000064608B1FEF786FD6868002103685B6A04
:101E40009847054610B13146FEF734FDC9F8004009
:101E5000C8F800503E60E5B12B1DCAF8003030468E
:101E6000C5F808A03368F563DB6898472B682846F7
:101E70001B6898472146304613F06CF923682046CA
:101E80001B699847236820465B6998472846BDE848
:101E9000F0872B46E1E700BF5083029065850290F2
:101EA000DE8302901F840290C2840290108302900D
:101EB00007B5D0F8583100F59E710093044BD0F867
:101EC00054210448FFF752FF03B05DF804FB00BF44
:101ED00048310224443102242DE9F041174B0026F9
:101EE0000546044646600F46067245F80C3B2846F8
:101EF0000DF0BAFF124B84F838701B7884F8396003
:101F0000A68723B9012323722046BDE8F0810D4B3B
:101F100028460D4FB3F90080E368B7F90010266139
:101F20009B6B9847E36841462846DB6B98472846F9
:101F30000DF015FF3B885B426387E5E73483029031
:101F4000FF300224F6300224F43002242DE9F04759
:101F5000074690689946884603681446DDF820A035
:101F60001B6A984740F26353984205D8414BA3211E
:101F7000414A424824F0BCFD606803681B6A9847E8
:101F80000F2803D83E4BA4213B4AF2E7E0680368E0
:101F90001B6A98473F2803D83A4BA521364AE8E701
:101FA00011F064F8043011F086F8D9F8000010B18F
:101FB0000368DB689847D9F8000010B103681B6814
:101FC0009847386810B103685B699847D8F80000F3
:101FD00010B103685B689847386810B103681B68E4
:101FE0009847D8F8000010B103689B689847E068EC
:101FF000002103685B6A9847054610B11421FFF77A
:102000006BFFA068002103685B6A9847064608B129
:10201000FEF798FC6068002103685B6A98470446F5
:1020200010B13146FEF746FCC9F80050C8F8004030
:102030003E60E4B1231DCAF800303046C4F808A061
:102040003368F463DB689847236820461B68984729
:102050002946304613F07EF82B6828461B699847BE
:102060002B6828465B6998472046BDE8F0872346E1
:10207000E1E700BF5083029069860290DE83029000
:102080001F840290C284029007B5D0F8583100F541
:102090009E710093044BD0F854210448FFF756FF7B
:1020A00003B05DF804FB00BF483102244431022430
:1020B0002DE9F0470746906899468846036814461C
:1020C000DDF820A01B6A984741F6D763984205D8EF
:1020D000414BA321414A424824F00AFD606803684D
:1020E0001B6A98470F2803D83E4BA4213B4AF2E7CE
:1020F000E06803681B6A98473F2803D83A4BA5213C
:10210000364AE8E710F0B2FF043010F0D4FFD9F8F7
:10211000000010B10368DB689847D9F8000010B1DF
:1021200003681B689847386810B103685B69984773
:10213000D8F8000010B103685B689847386810B1A0
:1021400003681B689847D8F8000010B103689B68C3
:102150009847E068002103685B6A9847054610B11C
:102160001421FFF7B9FEA068002103685B6A984755
:10217000064608B1FEF7F8FA6068002103685B6A5A
:102180009847044610B13146FEF778FBC9F8005075
:10219000C8F800403E60E4B1231DCAF80030304664
:1021A000C4F808A03368F463DB68984723682046C6
:1021B0001B6898472946304612F0CCFF2B6828460A
:1021C0001B6998472B6828465B6998472046BDE8FD
:1021D000F0872346E1E700BF508302908887029092
:1021E000DE8302901F840290C284029007B5D0F86B
:1021F000583100F59E710093044BD0F854210448E7
:10220000FFF756FF03B05DF804FB00BF483102241E
:102210004431022413B5002249B102AB019203F804
:10222000052D0268946801AAA04702B010BD0846B7
:10223000FBE7C0897047008A7047C0887047808874
:102240007047807A00F07F007047807AC00970473D
:10225000002070479FED010A704700BF000000009A
:10226000406A7047806A704770478B88C069DB0A94
:102270000A6850F823001044704710B5C2B1137BB0
:10228000B3B1547BD27A240204F4E0641443026AAA
:1022900098B202EB840213888B4202D192F90200B9
:1022A00010BD05D80138043280B20028F3D1F7E719
:1022B0000020F5E710B504462C2123F091FB2046C1
:1022C00010BD000030B58BB00446BDF860500895D5
:1022D000BDF85C5007959DF8505006959DF84C5000
:1022E00005959DF8485004959DF8445003959DF838
:1022F000405002959DF83C500195BDF8385000952E
:1023000012F0F6FA064B20462360159BE361169BFC
:102310002362199B63621A9BA3620BB030BD00BF9E
:10232000B088029030B5174D8FB02C78BFF35B8F1B
:1023300014F0010422D1284623F02AFBF0B13F23F8
:10234000012211490993114B0A940893104B0594EB
:102350001048CDE906430423CDE903320A23CDE931
:102360000B440093CDE90144FFF7ACFF284623F06E
:102370001BFB094A0949074823F02DFB05480FB00C
:1023800030BD00BF9C030024081A209054B802906E
:102390005CB80290A0030024000000246922009091
:1023A00010B5002404600C6014601C6010BD0000B7
:1023B00030B5174D8FB02C78BFF35B8F14F001044C
:1023C00022D1284623F0E4FAF0B13F23012211493B
:1023D0000993114B0A940893104B05941048CDE9CA
:1023E00006430423CDE903321423CDE90B440093C3
:1023F000CDE90144FFF766FF284623F0D5FA094AE4
:102400000949074823F0E7FA05480FB030BD00BF7F
:10241000CC030024301A209060B8029064B8029077
:10242000D0030024000000246922009030B5184D2C
:102430008FB02C78BFF35B8F14F0010425D12846B0
:1024400023F0A6FA08B3134B012213490A9405940A
:102450001248CDE90B433F230993114B0893114BCD
:10246000CDE906430423CDE9033228231B22009340
:102470003123CDE90144FFF725FF284623F094FAE4
:10248000094A0A49054823F0A6FA04480FB030BDAE
:10249000FC030024488D0290401A20900004002480
:1024A00058B8029068B80290000000246922009099
:1024B000704710B50446042123F092FA204610BD5F
:1024C000012908B508D003D3022909D0002002E071
:1024D00000F012F8006808BD00F00EF84068FAE756
:1024E00000F00AF88068F6E7004870477C8D02909B
:1024F000052070470D207047004870472C040024C9
:1025000010B5054CFFF754FF2060FFF78FFF6060A8
:10251000FFF708FFA06010BD2C04002400207047C6
:10252000002070470EB403B503AB002153F8042B11
:10253000019311F0E9FC02B05DF804EB03B07047C1
:102540000CB407B504AB53F8042B019311F0DCFC79
:1025500003B05DF804EB02B07047000010B5436CA7
:10256000044673B3038F2BB9184BC521184A194879
:1025700024F0BEFAC38E00EB43035B8C0BB313F065
:102580007BFB238F012B03D8134BCB21134AEEE7A0
:10259000E28E40F63F10531C9BB2092B194688BFB0
:1025A000A3F10A0104EB4101498C814209D10A2BB4
:1025B00004EB420228BF0023508C04EB43035884F1
:1025C00051842046BDE8104013F058BAE08D0290C7
:1025D0000D8F0290E98D02902D8E02903B8E02901D
:1025E00013F015BA10B586B002AC84E806001A469E
:1025F0000AAB214605930193099B0093089B10F0B9
:10260000D3F806B010BD000038B5D8B9114B124848
:102610001B681249BBB11A689C681A441C440260CA
:102620005A681A440A606CB10D4B00221A80FFF7F9
:1026300063FF0546FFF75EFF0A4B1C600A4B1D60F7
:102640000A4B188038BD0A4B03600A4B0B600A4BDB
:102650001C68E8E7380400243C04002440040024FB
:102660004404002458310224603102245C310224E5
:10267000101C2090BC1B20900C1C2090044B1B684D
:1026800053F82100034B1B6803EB4000704700BF69
:10269000400400243C040024012380F8781080F8D2
:1026A000793070470020704741640031024B18BFF9
:1026B00001211970704700BFFF30022400207047CD
:1026C000836B0BB10846184770474FF6FF70704791
:1026D000406803689B69184780F82610704790F897
:1026E0002600704710B50022B1F90840B1F90A1070
:1026F000028042808480C18010BD0022028042801E
:102700008280C28070470177704780ED080A704769
:1027100080F82410704780F825107047012070471A
:10272000983070478C30704784307047034B90224C
:1027300083F85A2383F85823704700BF00E100E074
:10274000094A0A49D3680A48C3F30A03013B9BB20A
:102750000B801169C1F30A01013901801364536BC5
:1027600043F0010353637047001000507E040024BF
:102770007C040024014B986A704700BF841000500D
:10278000024B0122996243F8602C7047841000507C
:102790007047704770477047242303FB01010023F3
:1027A00081F82430704780F82C10704710B504462B
:1027B000302123F015F9204610BD10B504462C2118
:1027C00023F00EF9204610BD10B50446BC2123F0BD
:1027D00007F9204610BD000010B531B90A4B40F290
:1027E000D2210A4A0A4824F083F9C0E90F120032C4
:1027F000084918BF01220A7019460268BDE8104056
:10280000D2F88C20104700BFA2910290339F029013
:10281000DA910290FE30022408B5094B1B888B42E6
:1028200003D8084B1B88934205D9074B9E21074AC2
:10283000074824F05DF9074B1980074B1A8008BD43
:10284000F4300224F63002243F910290F09E029070
:10285000DA910290FA300224FC30022408B531B13A
:10286000044B4FF49171044A044824F041F990F864
:10287000250008BDBC900290C0940290D0900290B8
:1028800010B531B1064B4FF48E71064A064824F05C
:102890002FF9406811460368BDE810401B6B1847CC
:1028A000BC9002900B9B0290D090029008B531B181
:1028B000044B4FF48A71044A044824F019F9C068A3
:1028C00008BD00BFBC900290529C0290D090029034
:1028D00070B504460D4629B10D4B5E210D4A0E48D8
:1028E00024F006F9406811460368DB689847606881
:1028F00003689B6A98472368E060294684F828505B
:1029000020465E6A01222B46B446BDE8704060470F
:10291000BC900290AC980290D09002902DE9F041CA
:10292000044617460D4629B10E4B4E210E4A0F485C
:1029300024F0DEF840683946026896681A46B047C7
:10294000606803689B6A98472368E060294684F8BA
:10295000285020465E6A01222B46B446BDE8F0416D
:10296000604700BFBC90029038970290D0900290D0
:1029700008B529B1054B4021054A064824F0B8F8AE
:1029800081600161C0E9053208BD00BFBC900290C2
:10299000E3950290D090029038B504460AF04BFAC5
:1029A00023685D6E10F062FB01462046A84723684D
:1029B000064A2046D3F888500023A2F57F31A84765
:1029C0006268034B5A64034A536038BD00FC03D06D
:1029D0003C0500244C0400240AF014BA0AF01EBA84
:1029E0000AF0DAB90AF03BBB10B504460AF062FF00
:1029F00023682046D3F8AC30BDE8104018470AF0F1
:102A0000EFBA90F87A301BB1406803681B6818472A
:102A10001846704710B590F8784090F834100C4B79
:102A20008C421A7809D03AB90A490B4A08881488A6
:102A3000108001220C801A7010BD002AFCD0064ABA
:102A40000449148808880C8010800022F3E700BF36
:102A5000F8300224F6300224F4300224134A002312
:102A6000F0B5C2F88430BFF34F8FD2F8803043F610
:102A7000E076C3F3C904C3F34E33A5075B0103EA51
:102A8000060C284621464CEA0007013900F1404077
:102A9000C2F874724F1CF6D1203B13F1200FEED117
:102AA000BFF34F8FBFF36F8FF0BD00BF00ED00E0AD
:102AB000034B5B69DB0301D5FFF7D0BF704700BF55
:102AC00000ED00E0034B5B69DB0301D5FFF7C6BFF8
:102AD000704700BF00ED00E070B5044629B1274BF8
:102AE0006E21274A274824F003F8052A2BD8DFE86F
:102AF00002F003252B30373F406803681B69984775
:102B000008B3012384F82530002384F82630A3601D
:102B1000236194F82730B3B96468236820469B6A20
:102B20009847236805462046DB6A984785420AD1C4
:102B3000236820469B69BDE870401847002380F851
:102B4000253080F8263070BDC3610023A360236167
:102B5000F9E7C361012380F8263080F82830F4E7D4
:102B60000023012280F8253080F82630C261EDE78D
:102B7000003318BF012380F82730E4E7BC900290AF
:102B800019920290D09002902DE9F3410546164625
:102B9000984629B1164BE921164A174823F0A8FF99
:102BA000406803681B699847F8B1144C01212068FC
:102BB0000AF0E2FE41460746684611F06BFB104BF7
:102BC000BDF902101B886868BDF9002003FB0122D3
:102BD000016807EB4202CD693146A84720680368C7
:102BE000DB6A02B0BDE8F041184702B0BDE8F081F1
:102BF000BC900290A09D0290D090029000310224DF
:102C0000FA30022408B590F8243033B1084B40F272
:102C10006B11084A084823F06BFF012280F824203A
:102C2000184681F83430CB860B870B6308BD00BF94
:102C30000F910290EB990290D0900290F8B5044663
:102C400029B13F4BA9213F4A3F4823F051FF90F85B
:102C500025301BB990F82630002B6FD03B4B002756
:102C60001B6893F86B10236984F826700B4423616A
:102C700094F82830002B54D01368104665685B69BF
:102C80009847E6692B682EB331465B6A2846984719
:102C90002B68E6692846DB6A98478642E7612CBFC5
:102CA000002601262B6828469B6A9847A368E060A7
:102CB0000133A360A069D4E904325A43A3684343B3
:102CC0009A4239D994F82C1069BB012184F8281054
:102CD0003046F8BD226A62B12846D3E909739847A5
:102CE000216A01442846B847A368226A2662134431
:102CF000A36094F827602B6826B19B692846984703
:102D00000646CFE79B6A284698472B680746284621
:102D1000DB6A9847874201D22B68EEE784F825608A
:102D2000C0E70126C6E7D31AB3FBF0F30BB9236261
:102D3000CBE7013B2362C9E70021C7E70126C7E7CC
:102D4000BC90029086930290D090029000310224B1
:102D5000034B4FF080629A604FF080729A60704728
:102D600000E100E0084B4FF08062C3F88820BFF319
:102D70004F8FBFF36F8F4FF08072C3F88820BFF37F
:102D80004F8FBFF36F8F704700E100E070B5294EA1
:102D90003578BFF35B8F15F0010548D1304622F03E
:102DA000F7FD002843D0244C244B04F13400256166
:102DB000E58425856585A585C4E90035C4E9025506
:102DC00011F0D9FC04F158000CF0A6FF1C4B204672
:102DD000A3651C4B40F8843BFEF76AF81A4B30465B
:102DE000C4F89050C4F884302433C4F89C50C4F81C
:102DF0008C306423C4F8A450A4F8A030002384F8D5
:102E0000A850C4F8AC30C4F8B030C4F8B430C4F83A
:102E1000B8300E4B84F8A95084F8AA50C4F8983002
:102E200022F0C2FD0A4A20460A4922F0D4FD024897
:102E300070BD00BF4804002480040024A0AA0290B2
:102E4000C08F02903890029054AA029034AA029047
:102E5000000000249327009010B5144C236823B37E
:102E6000134B144A1B6C11888B4213D1124B1988D7
:102E700004F01EFD226892F86A30013382F86A304D
:102E800000F058FB20680AF015FD0020BDE8104056
:102E900001F0C2BB04F00CFD206803681B6A984770
:102EA0000020BDE8104001F0E7BB10BD0031022456
:102EB000001000507E0400247C04002410B5044659
:102EC000482122F08DFD204610BD000038B5144D7C
:102ED000144C284600F058FD22461349284622F09B
:102EE0007AFD1248124B012212490360002380F838
:102EF000272080F82C20224680F8243080F82530C6
:102F000080F8263080F828304360C0E90233C0E9F9
:102F10000433C0E90633BDE8384022F05CBD00BF91
:102F20003C05002400000024972700904C04002456
:102F3000849002909127009003685B6C18470120F1
:102F40007047FEE7104B82B0D3F8D42042F0100255
:102F5000C3F8D420D3F8D42002F010020192019AD1
:102F6000DA6F42F01002DA67DA6F22F01002DA67E5
:102F7000064B074A1A62074A5A62074B4FF08062B3
:102F80009A6002B0704700BF00440258343D0224EA
:102F9000A52F0090432F009000E100E040F2EF30B9
:102FA00070470000024B1B68586803685B6918474C
:102FB0000031022408B50B280BD8DFE800F0120618
:102FC000100A0A0A0A0808080808012008BD052096
:102FD000FCE7054B7021054A054823F089FD0020D8
:102FE000F4E70220F2E700BF9B9F02906EA00290E0
:102FF000B69F029008B50A2809D8DFE800F010064D
:103000000E080808080606060600012008BD054B44
:103010009121054A054823F06BFD0020F6E70220C8
:10302000F4E700BF9B9F0290B8A00290B69F029069
:10303000F8B50C46487FFFF7BDFF0546A77F384629
:10304000FFF7B8FF06463846FFF7D4FFA38A628B26
:10305000D21A494B1A64A18A628B521A9A61A18AC8
:10306000228B521A1A615863A18AE28A42EA01420B
:103070005A642269DA636268DA602268402A70D092
:1030800010D8042A3BD0202A6BD0237F45EA036561
:10309000394B45F40035DD61617FA27F914267D0F5
:1030A000364A4BE0B2F5807F1BD0B2F5007F23D0CB
:1030B000802AEAD1A068021DDA62227F45EA026511
:1030C00045F40035DD615E6222695A610278EAB139
:1030D000012A35D02A4B40F21B112A4A2A4823F0F4
:1030E00007FD217F294A42EA0162DA61E2681A6239
:1030F0005E6222695A6120E0217F254AF3E7227F40
:1031000045EA026545F40035DD61F1E7D969428899
:10311000501E21F47F42012122F0100242EA0022D7
:10312000DA61154BDA6942F02002DA61DA69920657
:10313000FCD410229A600029B2D0164A1A60F8BD59
:10314000DA69408822F47F42217F013822F01002A0
:10315000FF3942F0100218BF012142EA0022DA6171
:10316000DFE7237F45EA0365034B45F40035CBE7F2
:1031700042F20132E2E700BF0010005201230100D9
:10318000819F029030A00290B69F02900A00020038
:10319000090002000123020010B5887F0C46FFF7EA
:1031A00029FF1C4B5863A18AE28A42EA01425A6411
:1031B0002269DA63628BA18A521A1A642268082A89
:1031C00016D1A18A628B521A9A61A18A628B521A15
:1031D0001A615862104A217F42EA0162DA61E268AC
:1031E0001A6222695A612269DA600C4A1A6010BDBB
:1031F0000022D8611A61E1680A0A4809C1F3C401D2
:1032000002F4784200F4FC6002430A439A63044AE1
:10321000ECE700BF0010005209000100012302008A
:1032200001230300054B4FF080620360044BC3F899
:103230008820BFF34F8FBFF36F8F7047E89F0290D6
:1032400000E100E010B50446FFF7ECFF40F6A451A2
:10325000204622F0C5FB204610BD0000012309498D
:103260001C2203720868084B02FB0030007E20B16C
:10327000086802FB003001F0A5B8086802FB0030C6
:1032800001F05EB8283500240C00002410B590F839
:10329000A03D0446ABB903689B6A9847174B1A6870
:1032A0001C235343164AD35C012B09D1154A1268DB
:1032B00032B9227A22B984F8A03D2046FFF7CEFF2A
:1032C00010BD037A4BB1002303721C200B4B1A680C
:1032D0000B4B00FB023001F0F7F8606803681B68D5
:1032E00098470028ECD1637A002BE9D0236884F852
:1032F000A00D20465B6ABDE8104018472835002421
:103300000C0000242435002410B5044640680368EE
:103310001B68984758B9637A4BB1237A3BB984F854
:10332000A03D20462368BDE810405B6A1847084B63
:103330001A681C235343074AD35C012B06D1227A17
:1033400022B984F8A03D2046FFF788FF10BD00BFDA
:10335000283500240C00002470B505460B4B0C30BA
:1033600000262C46602268602E726E7244F8203B64
:1033700021460AF0FDFB05F55A63E6602434A342BA
:10338000FBD185F8A06D284670BD00BFE89F029074
:10339000034B1A68D207FCD423229A60704700BFFF
:1033A000001000520C4B5A6912F4803F1A4611D09B
:1033B00000290FDD00F01F031944BFF34F8F0144B4
:1033C000C2F8680220300B1A002BF9DCBFF34F8FD4
:1033D000BFF36F8F704700BF00ED00E030B5104CB9
:1033E0002568ED07FCD423250904FF2BA56041F0D7
:1033F00001014FF0020565636164E0630AD0094989
:10340000656241EA0363E361074B22626061E06049
:10341000236030BDE561039BA363044BF8E700BF65
:103420000010005209000100010002000100030029
:1034300030B50F4C2568ED07FCD423251204FF2B73
:10344000A56042F001024FF0020565636264E0632B
:10345000E16008D01B0643F00213E361054B65628F
:103460006061236030BD044BE3610123F9E700BFD5
:103470000010005201000200020002FF30B50B4CA8
:103480002568ED07FCD4232512041B06A56042F035
:103490000102022543F4003365636264E063E16086
:1034A000E361034B65626061236030BD0010005230
:1034B000010002000121002208B5084607F087FF3D
:1034C0000A4B186028B90A4B28210A4A0A4823F0F7
:1034D0000FFB00220421012008F01AF8074B1860A6
:1034E00018B9074B2C21034AF0E708BD88050024D2
:1034F00003A10290B7A102904CA102908405002480
:1035000075A10290024B4FF0FF31186807F0AABF77
:1035100088050024014B186807F0D0BF88050024F7
:10352000024B0021186807F09DBF00BF88050024EA
:10353000FFF7F0BF0023034803491A46006808F06C
:1035400023B800BF840500240400002413B5002321
:10355000074C01A91A46206808F048F84FF0FF33DD
:10356000002201A9206808F041F802B010BD00BF98
:1035700084050024704770477047704701207047EA
:103580004020704700EB81100830704700EB81103D
:10359000083070470120704741F6D860704741F607
:1035A000D86303FB01000830704741F6D86303FB82
:1035B000010008307047012070471020704700EB71
:1035C00001100830704700EB0110083070470846C2
:1035D000FEF79CBB034B10B50446036009F02EF9BF
:1035E000204610BD58A2029010B50446FFF7F2FF26
:1035F0004821204622F0F4F9204610BD034B10B5B7
:103600000446036009F01AF9204610BD24A2029076
:1036100010B50446FFF7F2FF4FF4F751204622F0B1
:10362000DFF9204610BD0000034B10B504460360CF
:1036300009F004F9204610BDF0A1029010B504462F
:10364000FFF7F2FF1821204622F0CAF9204610BDEC
:10365000094B10B50446036000F5F8500C30FFF735
:10366000B9FF04F12C00FFF7C9FF04F11400FFF7C4
:10367000DBFF204610BD00BF8CA2029010B50446AF
:10368000FFF7E6FF42F2B801204622F0A9F92046F2
:1036900010BD00002DE9F341FEF726FF002405468A
:1036A000FEF726FF2346014622462846009413F0E3
:1036B00031F9284B284A2046284D1A60FEF7A4FF0E
:1036C000274B284A28489A6013F08CF82B78BFF3D0
:1036D0005B8FDB0737D4284622F05AF9002832D016
:1036E000224C234B04F12C0804F11400236008F54C
:1036F000F7576060C4F8088007F15006E76026615C
:1037000009F09EF81B4B4046636109F099F81A4B8B
:103710003846E36209F094F8184B07F148003B6023
:10372000FDF7A8F9224607F148013046FDF7D6F922
:103730003046FEF7EBFA284622F036F9104A1149D6
:10374000204622F048F9104802B0BDE8F04100F0F0
:10375000DFBE00BF64310224943400248C050024B1
:1037600098340024482600240800002490050024F2
:103770008CA20290F0A1029024A2029058A2029082
:1037800000000024513600900C34002470470000E3
:10379000014800F0D3BE00BF0C34002410B504462D
:1037A000042122F01DF9204610BD10B504468C21DD
:1037B00022F016F9204610BD10B504461C2122F057
:1037C0000FF9204610BD10B50446882122F008F9F3
:1037D000204610BD2DE9F041414C424D424B22465E
:1037E000424F284642492B6022F0F5F8414E3846B8
:1037F000FFF7B2FD22464049384622F0ECF8DFF8E8
:103800003881304618F08EF922463C49304622F085
:10381000E2F8404610F050FD22463949404622F079
:10382000DAF822463749384822F0D5F837480023DD
:1038300001223749C560038580F82A30C3620386B8
:1038400080F8483080F8492080F84A3080F84B30C2
:10385000436580F858304366816680F86C3080F8A4
:103860006D3080F86E302B49C0E90176C0E9043331
:10387000C0E90633C0E90833C0E90E33C0E91033AC
:10388000C0E91333C0E9173380F86F3080F87A202D
:1038900080F87B20204AC0F8803010604FF4F0722E
:1038A00080F870300A801D4943670A804FF488729F
:1038B0001B4980F878300A801A4980F879300A80EC
:1038C000194A80F834301370C0F88430174A184B06
:1038D00002602246C3671749BDE8F04122F07BB879
:1038E00000000024642600241CA602906826002400
:1038F000753500909834002425320090773500907B
:1039000079350090B1240090080000240C34002484
:1039100001000001F430022400310224FA300224B4
:10392000F6300224FC300224F830022444A5029030
:1039300034A602907B3500904826002440697047E9
:1039400090F840007047036B23B9C06A003018BF7D
:10395000012070470120704780687047704704302D
:1039600010B50C460FC884E80F0010BD08B5034A17
:1039700040F2F311024B034823F0BAF872A402900C
:10398000E78D0290E1A2029000220E4B10B5114685
:1039900004460360C26380F84020C0E90522C0E904
:1039A0000722C0E90922C0E90B22C0E90D22C0E9C3
:1039B0000322C0E90122012007F009FD024B186033
:1039C000204610BDA8A302909C91002430B4154657
:1039D000026B42B1C46B406B0C1B204429461A4653
:1039E00030BC23F0CDBCC06A0844F7E710B5036BC8
:1039F00073B1C36B426BC91A5318525C98785C78E8
:103A0000000440EA04201043DB7840EA036010BD64
:103A1000C26A5318525C59789878000440EA012031
:103A2000F1E7036B43B1C36BC91A436B5A18585C77
:103A3000527840EA02207047C36A5A18585C53789B
:103A400040EA03207047000070B50446006B0D4645
:103A50001646D8B1A36B934208D209230D4AAF2171
:103A60000D4884F840300D4B23F042F80368DB68C2
:103A70009847206B3246616B03681B69984710B901
:103A80000D2384F84030606BE56370BDE06A084444
:103A9000FBE700BFFAA40290E1A202908AA3029081
:103AA0002DE9F041436904462BB9214BF521214A08
:103AB000214823F01DF808228169FFF7C5FFA1699D
:103AC00043F2300646F2643504312046FFF78EFF9C
:103AD000A169A36A084400F108029A4220D26369EE
:103AE00009300822013320F0010120466361A16101
:103AF000FFF7AAFFA1692046FFF793FFA16980465F
:103B000020460231FFF78DFFA169074620460431A8
:103B1000FFF76CFFB045DBD1AF42D9D1012004E003
:103B2000012300206361236AA361BDE8F08100BF27
:103B300098A20290E4A30290E1A2029070B50368FB
:103B4000002914BF0D4601250446DB6A9847A842A8
:103B500004D223682046DB6A9847054605F1805366
:103B6000E66910222046013B06EB031606F1080128
:103B7000FFF76AFF06F110012046FFF737FF236ABF
